:020000040000FA
:10000000012804309200870193010C30950083167B
:10001000FF309200DF3087003030910060309F0069
:10002000831215309F0082209F149F1815281E08E8
:10003000A60091309F0082209F149F181D281E0843
:10004000A00083161E088312A1002008A200210828
:10005000A3000310A30DA20D0310A30DA20D2308EE
:10006000A5002208A4007820782078200310240C12
:10007000A800A9012808AA0018302A02031C432856
:10008000AA00A90A3C282608343C00300318582846
:100090002608683C1830031858282608993C303048
:1000A000031858282608CC3C4830031858286030DC
:1000B000A70027082A07AC0003308A002C08002379
:1000C000AB00290803196928AD000C30AB07AD0B54
:1000D000652804308A002B080024AE002B083E243B
:1000E000AF008A012E0893002F0E0C3895001128BE
:1000F0000310A30DA20D2308A5070318A40A2208C4
:0E010000A40708002830AD00AD0B84280800CD
:1006000082070034003402340234023402340434E9
:10061000043404340534053405340734073407340E
:10062000073409340934093409340B340B340B34DE
:100630000C34003400340234023402340234043402
:1006400004340434043404340734073407340734DE
:100650000734093409340934093409340C340C34AE
:100660000C340034003402340234023403340334D2
:1006700003340534053405340534073407340734AE
:100680000834083408340A340A340A340A340C347E
:100690000C340034003400340334033403340334A2
:1006A000033405340534053405340734073407347E
:1006B000073407340A340A340A340A340A340C344E
:1006C0000C34003401340134023402340334033472
:1006D000043404340534053406340634073407344E
:1006E00008340834093409340A340A340B340B341E
:0206F0000C34C8
:1008000082070034043408340C341134153419349C
:100810001D34223426342A342F34333437343B34D5
:100820004034443448344C345134553459345D34B4
:10083000623466346A346F34733477347B34803492
:10084000843488348C349134953499349D34A23472
:10085000A634AA34AF34B334B734BB34C034C43450
:10086000C834CC34D134D534D934DD34E234E63430
:10087000EA34EF34F334F734FB34FF3482070034C6
:1008800001340234033400340134023403340134BB
:1008900002340334003401340234033400340134AC
:1008A000023403340034013402340334013402349A
:1008B000033400340134023403340034013402348C
:1008C0000334003401340234033401340234033479
:1008D000003401340234033400340134023403346C
:1008E000003401340234033401340234033400345C
:0808F000013402340334033427
:00000001FF
